{"abi":[{"inputs":[{"internalType":"address","name":"_vrfCoordinator","type":"address"},{"internalType":"address","name":"_linkTokenAddress","type":"address"},{"internalType":"uint256","name":"_fee","type":"uint256"},{"internalType":"bytes32","name":"_keyhash","type":"bytes32"},{"internalType":"contract BAPToken","name":"_token","type":"address"}],"stateMutability":"nonpayable","type":"constructor","name":"constructor"},{"anonymous":false,"inputs":[{"indexed":false,"internalType":"address","name":"winner","type":"address"},{"indexed":false,"internalType":"uint256","name":"timeStamp","type":"uint256"}],"name":"LotteryFinished","type":"event"},{"anonymous":false,"inputs":[{"indexed":false,"internalType":"uint256","name":"timeStamp","type":"uint256"}],"name":"LotteryStarted","type":"event"},{"anonymous":false,"inputs":[{"indexed":false,"internalType":"address","name":"participant","type":"address"},{"indexed":false,"internalType":"uint256","name":"entryId","type":"uint256"}],"name":"NewEntry","type":"event"},{"anonymous":false,"inputs":[{"indexed":true,"internalType":"address","name":"previousOwner","type":"address"},{"indexed":true,"internalType":"address","name":"newOwner","type":"address"}],"name":"OwnershipTransferred","type":"event"},{"anonymous":false,"inputs":[{"indexed":false,"internalType":"bytes32","name":"requestId","type":"bytes32"}],"name":"RequestedRandomness","type":"event"},{"anonymous":false,"inputs":[{"indexed":false,"internalType":"address","name":"user","type":"address"},{"indexed":false,"internalType":"uint256","name":"amount","type":"uint256"}],"name":"UserPaid","type":"event"},{"stateMutability":"payable","type":"fallback"},{"inputs":[{"internalType":"uint256","name":"_newDuration","type":"uint256"}],"name":"changeDuration","outputs":[],"stateMutability":"nonpayable","type":"function"},{"inputs":[],"name":"endLottery","outputs":[],"stateMutability":"nonpayable","type":"function"},{"inputs":[{"internalType":"uint256","name":"_numberOfEntries","type":"uint256"}],"name":"enterLottery","outputs":[],"stateMutability":"payable","type":"function"},{"inputs":[],"name":"entryCounter","outputs":[{"internalType":"uint256","name":"","type":"uint256"}],"stateMutability":"view","type":"function"},{"inputs":[{"internalType":"uint256","name":"","type":"uint256"}],"name":"entryIdToParticipant","outputs":[{"internalType":"address","name":"","type":"address"}],"stateMutability":"view","type":"function"},{"inputs":[],"name":"fee","outputs":[{"internalType":"uint256","name":"","type":"uint256"}],"stateMutability":"view","type":"function"},{"inputs":[],"name":"keyhash","outputs":[{"internalType":"bytes32","name":"","type":"bytes32"}],"stateMutability":"view","type":"function"},{"inputs":[],"name":"latestWinner","outputs":[{"internalType":"address","name":"","type":"address"}],"stateMutability":"view","type":"function"},{"inputs":[],"name":"lotteryDeadlineTimestamp","outputs":[{"internalType":"uint256","name":"","type":"uint256"}],"stateMutability":"view","type":"function"},{"inputs":[],"name":"lotteryDuration","outputs":[{"internalType":"uint256","name":"","type":"uint256"}],"stateMutability":"view","type":"function"},{"inputs":[],"name":"lotteryState","outputs":[{"internalType":"enum Lottery.LOTTERY_STATE","name":"","type":"uint8"}],"stateMutability":"view","type":"function"},{"inputs":[],"name":"owner","outputs":[{"internalType":"address","name":"","type":"address"}],"stateMutability":"view","type":"function"},{"inputs":[{"internalType":"address","name":"","type":"address"}],"name":"participantEntries","outputs":[{"internalType":"uint256","name":"","type":"uint256"}],"stateMutability":"view","type":"function"},{"inputs":[],"name":"poolPrize","outputs":[{"internalType":"uint256","name":"","type":"uint256"}],"stateMutability":"view","type":"function"},{"inputs":[],"name":"randomness","outputs":[{"internalType":"uint256","name":"","type":"uint256"}],"stateMutability":"view","type":"function"},{"inputs":[{"internalType":"bytes32","name":"requestId","type":"bytes32"},{"internalType":"uint256","name":"randomness","type":"uint256"}],"name":"rawFulfillRandomness","outputs":[],"stateMutability":"nonpayable","type":"function"},{"inputs":[],"name":"renounceOwnership","outputs":[],"stateMutability":"nonpayable","type":"function"},{"inputs":[],"name":"startLottery","outputs":[],"stateMutability":"nonpayable","type":"function"},{"inputs":[],"name":"token","outputs":[{"internalType":"contract BAPToken","name":"","type":"address"}],"stateMutability":"view","type":"function"},{"inputs":[{"internalType":"address","name":"newOwner","type":"address"}],"name":"transferOwnership","outputs":[],"stateMutability":"nonpayable","type":"function"},{"stateMutability":"payable","type":"receive"}],"bytecode":"60c060405260018054600160a81b600160e81b031916601960a91b1790553480156200002a57600080fd5b506040516200149a3803806200149a8339810160408190526200004d91620001e6565b6001600160a01b0385811660a0528416608052600180546001600160a01b0319163390811790915560405181906000907f8be0079c531659141344cd1fd0a4f28419497f9722a3daafe3b4186f6b6457e0908290a350600483815560078390556001805460ff60a01b1916905561012c600555600b80546001600160a01b0384166001600160a01b03199091168117909155604051630c9fcec960e01b81523392810192909252306024830152620f4240604483015290630c9fcec990606401600060405180830381600087803b1580156200012857600080fd5b505af11580156200013d573d6000803e3d6000fd5b5050600b546040516323b872dd60e01b8152336004820152306024820152620f424060448201526001600160a01b0390911692506323b872dd91506064016020604051808303816000875af11580156200019b573d6000803e3d6000fd5b505050506040513d601f19601f82011682018060405250810190620001c191906200024f565b5050505050506200027a565b6001600160a01b0381168114620001e357600080fd5b50565b600080600080600060a08688031215620001ff57600080fd5b85516200020c81620001cd565b60208701519095506200021f81620001cd565b80945050604086015192506060860151915060808601516200024181620001cd565b809150509295509295909350565b6000602082840312156200026257600080fd5b815180151581146200027357600080fd5b9392505050565b60805160a0516111f3620002a7600039600081816109440152610b9401526000610b6501526111f36000f3fe6080604052600436106101235760003560e01c8063835a1fae116100a0578063ddca3f4311610064578063ddca3f43146102de578063f2fde38b146102f4578063fc0c546a14610314578063fcac59c314610334578063fe0837d11461036157600080fd5b8063835a1fae146102545780638da5cb5b1461026a57806394985ddd14610288578063b594f086146102a8578063d84c72c5146102c857600080fd5b80633fd43098116100e75780633fd43098146101d257806362da8313146101e55780636939864b146101fb57806369ebe78e14610229578063715018a61461023f57600080fd5b806306ef53e01461012f5780631593a8c71461016c578063160344e2146101835780632d97902f1461019857806336013189146101bc57600080fd5b3661012a57005b600080fd5b34801561013b57600080fd5b5060085461014f906001600160a01b031681565b6040516001600160a01b0390911681526020015b60405180910390f35b34801561017857600080fd5b50610181610397565b005b34801561018f57600080fd5b506101816104b6565b3480156101a457600080fd5b506101ae60055481565b604051908152602001610163565b3480156101c857600080fd5b506101ae60025481565b6101816101e0366004610f7b565b610574565b3480156101f157600080fd5b506101ae60035481565b34801561020757600080fd5b5060015461021c90600160a01b900460ff1681565b6040516101639190610faa565b34801561023557600080fd5b506101ae60075481565b34801561024b57600080fd5b506101816108c5565b34801561026057600080fd5b506101ae600c5481565b34801561027657600080fd5b506001546001600160a01b031661014f565b34801561029457600080fd5b506101816102a3366004610fd2565b610939565b3480156102b457600080fd5b506101816102c3366004610f7b565b6109bf565b3480156102d457600080fd5b506101ae60065481565b3480156102ea57600080fd5b506101ae60045481565b34801561030057600080fd5b5061018161030f366004610ff4565b610a76565b34801561032057600080fd5b50600b5461014f906001600160a01b031681565b34801561034057600080fd5b506101ae61034f366004610ff4565b60096020526000908152604090205481565b34801561036d57600080fd5b5061014f61037c366004610f7b565b600a602052600090815260409020546001600160a01b031681565b60018054600160a01b900460ff1660028111156103b6576103b6610f94565b146104015760405162461bcd60e51b8152602060048201526016602482015275131bdd1d195c9e481b5d5cdd081899481bdc195b995960521b60448201526064015b60405180910390fd5b6006544210156104535760405162461bcd60e51b815260206004820152601f60248201527f546865206c6f7474657279206973206e6f742066696e6973686564207965740060448201526064016103f8565b6001805460ff60a01b1916600160a11b17905560075460045460009161047891610b61565b90507fe5f5b44d72d4143c278eb745c4acc0695c4a5bc616be5beecf46abe29661780e816040516104ab91815260200190565b60405180910390a150565b6000600154600160a01b900460ff1660028111156104d6576104d6610f94565b1461051c5760405162461bcd60e51b8152602060048201526016602482015275131bdd1d195c9e481b5d5cdd0818994818db1bdcd95960521b60448201526064016103f8565b6001805460ff60a01b1916600160a01b17905560055461053c904261103a565b6006556040514281527f3d01c4ba0165a3f9c01ca4916efd5efd92dd9ac07569ff74d7047c7cde6683499060200160405180910390a1565b60018054600160a01b900460ff16600281111561059357610593610f94565b146105d95760405162461bcd60e51b8152602060048201526016602482015275131bdd1d195c9e481b5d5cdd081899481bdc195b995960521b60448201526064016103f8565b80806000036105fa5760405162461bcd60e51b81526004016103f890611052565b3361063e5760405162461bcd60e51b8152602060048201526014602482015273696e76616c69642075736572206164647265737360601b60448201526064016103f8565b600b546001546001600160a01b0390911690630c9fcec99033903090610676908790600160a81b900467ffffffffffffffff16611089565b61068890670de0b6b3a7640000611089565b6040516001600160e01b031960e086901b1681526001600160a01b0393841660048201529290911660248301526044820152606401600060405180830381600087803b1580156106d757600080fd5b505af11580156106eb573d6000803e3d6000fd5b5050600b546001546001600160a01b0390911692506323b872dd915033903090610727908790600160a81b900467ffffffffffffffff16611089565b61073990670de0b6b3a7640000611089565b6040516001600160e01b031960e086901b1681526001600160a01b03938416600482015292909116602483015260448201526064016020604051808303816000875af115801561078d573d6000803e3d6000fd5b505050506040513d601f19601f820116820180604052508101906107b191906110a8565b506001546107d1908390600160a81b900467ffffffffffffffff16611089565b6107e390670de0b6b3a7640000611089565b600c60008282546107f4919061103a565b90915550600090505b828110156108c0576003546000908152600a6020908152604080832080546001600160a01b03191633908117909155835260099091528120805491610841836110ca565b909155505060038054906000610856836110ca565b91905055507f9d5cf8d6fc62210bab9630b8d613c1b63d9cfe0e0d2d70dda538d69c7e4f37ba33600160035461088c91906110e3565b604080516001600160a01b03909316835260208301919091520160405180910390a1806108b8816110ca565b9150506107fd565b505050565b6001546001600160a01b031633146108ef5760405162461bcd60e51b81526004016103f8906110fa565b6001546040516000916001600160a01b0316907f8be0079c531659141344cd1fd0a4f28419497f9722a3daafe3b4186f6b6457e0908390a3600180546001600160a01b0319169055565b336001600160a01b037f000000000000000000000000000000000000000000000000000000000000000016146109b15760405162461bcd60e51b815260206004820152601f60248201527f4f6e6c7920565246436f6f7264696e61746f722063616e2066756c66696c6c0060448201526064016103f8565b6109bb8282610cdb565b5050565b6001546001600160a01b031633146109e95760405162461bcd60e51b81526004016103f8906110fa565b6000600154600160a01b900460ff166002811115610a0957610a09610f94565b14610a4f5760405162461bcd60e51b8152602060048201526016602482015275131bdd1d195c9e481b5d5cdd0818994818db1bdcd95960521b60448201526064016103f8565b8080600003610a705760405162461bcd60e51b81526004016103f890611052565b50600555565b6001546001600160a01b03163314610aa05760405162461bcd60e51b81526004016103f8906110fa565b6001600160a01b038116610b055760405162461bcd60e51b815260206004820152602660248201527f4f776e61626c653a206e6577206f776e657220697320746865207a65726f206160448201526564647265737360d01b60648201526084016103f8565b6001546040516001600160a01b038084169216907f8be0079c531659141344cd1fd0a4f28419497f9722a3daafe3b4186f6b6457e090600090a3600180546001600160a01b0319166001600160a01b0392909216919091179055565b60007f00000000000000000000000000000000000000000000000000000000000000006001600160a01b0316634000aea07f000000000000000000000000000000000000000000000000000000000000000084866000604051602001610bd1929190918252602082015260400190565b6040516020818303038152906040526040518463ffffffff1660e01b8152600401610bfe9392919061112f565b6020604051808303816000875af1158015610c1d573d6000803e3d6000fd5b505050506040513d601f19601f82011682018060405250810190610c4191906110a8565b5060008381526020818152604080832054815180840188905280830185905230606082015260808082018390528351808303909101815260a090910190925281519183019190912086845292909152610c9b90600161103a565b6000858152602081815260409182902092909255805180830187905280820184905281518082038301815260609091019091528051910120949350505050565b8080600003610cfc5760405162461bcd60e51b81526004016103f890611052565b6002600154600160a01b900460ff166002811115610d1c57610d1c610f94565b14610d7f5760405162461bcd60e51b815260206004820152602d60248201527f54686520636f6e7472616374206973206e6f742070726f63657373696e67207460448201526c1a19481dda5b9b995c881e595d609a1b60648201526084016103f8565b600060035483610d8f919061119b565b6000818152600a6020526040902054600880546001600160a01b0319166001600160a01b039092169182179055600c54919250610dcc9190610e78565b6001805460ff60a01b191690556000600c8190555b600354811015610e22576000818152600a60209081526040808320546001600160a01b03168352600990915281205580610e1a816110ca565b915050610de1565b5060006003556002839055600854604080516001600160a01b0390921682524260208301527f64ffca72c341aab4874123afb736afbd6fad01e6eaf584cfe0f320a144d3a576910160405180910390a150505050565b600b546001600160a01b0316630c9fcec93083610e9d86670de0b6b3a7640000611089565b6040516001600160e01b031960e086901b1681526001600160a01b0393841660048201529290911660248301526044820152606401600060405180830381600087803b158015610eec57600080fd5b505af1158015610f00573d6000803e3d6000fd5b5050600b5460405163a9059cbb60e01b81526001600160a01b03858116600483015260248201879052909116925063a9059cbb91506044016020604051808303816000875af1158015610f57573d6000803e3d6000fd5b505050506040513d601f19601f820116820180604052508101906108c091906110a8565b600060208284031215610f8d57600080fd5b5035919050565b634e487b7160e01b600052602160045260246000fd5b6020810160038310610fcc57634e487b7160e01b600052602160045260246000fd5b91905290565b60008060408385031215610fe557600080fd5b50508035926020909101359150565b60006020828403121561100657600080fd5b81356001600160a01b038116811461101d57600080fd5b9392505050565b634e487b7160e01b600052601160045260246000fd5b6000821982111561104d5761104d611024565b500190565b6020808252601d908201527f5468697320706172616d657465722063616e6e6f74206265207a65726f000000604082015260600190565b60008160001904831182151516156110a3576110a3611024565b500290565b6000602082840312156110ba57600080fd5b8151801515811461101d57600080fd5b6000600182016110dc576110dc611024565b5060010190565b6000828210156110f5576110f5611024565b500390565b6020808252818101527f4f776e61626c653a2063616c6c6572206973206e6f7420746865206f776e6572604082015260600190565b60018060a01b038416815260006020848184015260606040840152835180606085015260005b8181101561117157858101830151858201608001528201611155565b81811115611183576000608083870101525b50601f01601f19169290920160800195945050505050565b6000826111b857634e487b7160e01b600052601260045260246000fd5b50069056fea26469706673582212201aabf52ca36d1d547bfc0b317db172ca98a1604e36171420003db1631445653064736f6c634300080f0033","bytecodeSha1":"f5d84c11b8295ecc67661e3c1015096b1725fc8a","compiler":{"evm_version":"istanbul","optimizer":{"enabled":true,"runs":200},"version":"0.8.15+commit.e14f2714"},"contractName":"Lottery","language":"Solidity","natspec":{"kind":"dev","methods":{"owner()":{"details":"Returns the address of the current owner."},"renounceOwnership()":{"details":"Leaves the contract without owner. It will not be possible to call `onlyOwner` functions anymore. Can only be called by the current owner. NOTE: Renouncing ownership will leave the contract without an owner, thereby removing any functionality that is only available to the owner."},"transferOwnership(address)":{"details":"Transfers ownership of the contract to a new account (`newOwner`). Can only be called by the current owner."}},"version":1},"opcodes":"PUSH1 0x80 PUSH1 0x40 MSTORE PUSH1 0x4 CALLDATASIZE LT PUSH2 0x123 JUMPI PUSH1 0x0 CALLDATALOAD PUSH1 0xE0 SHR DUP1 PUSH4 0x835A1FAE GT PUSH2 0xA0 JUMPI DUP1 PUSH4 0xDDCA3F43 GT PUSH2 0x64 JUMPI DUP1 PUSH4 0xDDCA3F43 EQ PUSH2 0x2DE JUMPI DUP1 PUSH4 0xF2FDE38B EQ PUSH2 0x2F4 JUMPI DUP1 PUSH4 0xFC0C546A EQ PUSH2 0x314 JUMPI DUP1 PUSH4 0xFCAC59C3 EQ PUSH2 0x334 JUMPI DUP1 PUSH4 0xFE0837D1 EQ PUSH2 0x361 JUMPI PUSH1 0x0 DUP1 REVERT JUMPDEST DUP1 PUSH4 0x835A1FAE EQ PUSH2 0x254 JUMPI DUP1 PUSH4 0x8DA5CB5B EQ PUSH2 0x26A JUMPI DUP1 PUSH4 0x94985DDD EQ PUSH2 0x288 JUMPI DUP1 PUSH4 0xB594F086 EQ PUSH2 0x2A8 JUMPI DUP1 PUSH4 0xD84C72C5 EQ PUSH2 0x2C8 JUMPI PUSH1 0x0 DUP1 REVERT JUMPDEST DUP1 PUSH4 0x3FD43098 GT PUSH2 0xE7 JUMPI DUP1 PUSH4 0x3FD43098 EQ PUSH2 0x1D2 JUMPI DUP1 PUSH4 0x62DA8313 EQ PUSH2 0x1E5 JUMPI DUP1 PUSH4 0x6939864B EQ PUSH2 0x1FB JUMPI DUP1 PUSH4 0x69EBE78E EQ PUSH2 0x229 JUMPI DUP1 PUSH4 0x715018A6 EQ PUSH2 0x23F JUMPI PUSH1 0x0 DUP1 REVERT JUMPDEST DUP1 PUSH4 0x6EF53E0 EQ PUSH2 0x12F JUMPI DUP1 PUSH4 0x1593A8C7 EQ PUSH2 0x16C JUMPI DUP1 PUSH4 0x160344E2 EQ PUSH2 0x183 JUMPI DUP1 PUSH4 0x2D97902F EQ PUSH2 0x198 JUMPI DUP1 PUSH4 0x36013189 EQ PUSH2 0x1BC JUMPI PUSH1 0x0 DUP1 REVERT JUMPDEST CALLDATASIZE PUSH2 0x12A JUMPI STOP JUMPDEST PUSH1 0x0 DUP1 REVERT JUMPDEST CALLVALUE DUP1 ISZERO PUSH2 0x13B JUMPI PUSH1 0x0 DUP1 REVERT JUMPDEST POP PUSH1 0x8 SLOAD PUSH2 0x14F SWAP1 PUSH1 0x1 PUSH1 0x1 PUSH1 0xA0 SHL SUB AND DUP2 JUMP JUMPDEST PUSH1 0x40 MLOAD PUSH1 0x1 PUSH1 0x1 PUSH1 0xA0 SHL SUB SWAP1 SWAP2 AND DUP2 MSTORE PUSH1 0x20 ADD JUMPDEST PUSH1 0x40 MLOAD DUP1 SWAP2 SUB SWAP1 RETURN JUMPDEST CALLVALUE DUP1 ISZERO PUSH2 0x178 JUMPI PUSH1 0x0 DUP1 REVERT JUMPDEST POP PUSH2 0x181 PUSH2 0x397 JUMP JUMPDEST STOP JUMPDEST CALLVALUE DUP1 ISZERO PUSH2 0x18F JUMPI PUSH1 0x0 DUP1 REVERT JUMPDEST POP PUSH2 0x181 PUSH2 0x4B6 JUMP JUMPDEST CALLVALUE DUP1 ISZERO PUSH2 0x1A4 JUMPI PUSH1 0x0 DUP1 REVERT JUMPDEST POP PUSH2 0x1AE PUSH1 0x5 SLOAD DUP2 JUMP JUMPDEST PUSH1 0x40 MLOAD SWAP1 DUP2 MSTORE PUSH1 0x20 ADD PUSH2 0x163 JUMP JUMPDEST CALLVALUE DUP1 ISZERO PUSH2 0x1C8 JUMPI PUSH1 0x0 DUP1 REVERT JUMPDEST POP PUSH2 0x1AE PUSH1 0x2 SLOAD DUP2 JUMP JUMPDEST PUSH2 0x181 PUSH2 0x1E0 CALLDATASIZE PUSH1 0x4 PUSH2 0xF7B JUMP JUMPDEST PUSH2 0x574 JUMP JUMPDEST CALLVALUE DUP1 ISZERO PUSH2 0x1F1 JUMPI PUSH1 0x0 DUP1 REVERT JUMPDEST POP PUSH2 0x1AE PUSH1 0x3 SLOAD DUP2 JUMP JUMPDEST CALLVALUE DUP1 ISZERO PUSH2 0x207 JUMPI PUSH1 0x0 DUP1 REVERT JUMPDEST POP PUSH1 0x1 SLOAD PUSH2 0x21C SWAP1 PUSH1 0x1 PUSH1 0xA0 SHL SWAP1 DIV PUSH1 0xFF AND DUP2 JUMP JUMPDEST PUSH1 0x40 MLOAD PUSH2 0x163 SWAP2 SWAP1 PUSH2 0xFAA JUMP JUMPDEST CALLVALUE DUP1 ISZERO PUSH2 0x235 JUMPI PUSH1 0x0 DUP1 REVERT JUMPDEST POP PUSH2 0x1AE PUSH1 0x7 SLOAD DUP2 JUMP JUMPDEST CALLVALUE DUP1 ISZERO PUSH2 0x24B JUMPI PUSH1 0x0 DUP1 REVERT JUMPDEST POP PUSH2 0x181 PUSH2 0x8C5 JUMP JUMPDEST CALLVALUE DUP1 ISZERO PUSH2 0x260 JUMPI PUSH1 0x0 DUP1 REVERT JUMPDEST POP PUSH2 0x1AE PUSH1 0xC SLOAD DUP2 JUMP JUMPDEST CALLVALUE DUP1 ISZERO PUSH2 0x276 JUMPI PUSH1 0x0 DUP1 REVERT JUMPDEST POP PUSH1 0x1 SLOAD PUSH1 0x1 PUSH1 0x1 PUSH1 0xA0 SHL SUB AND PUSH2 0x14F JUMP JUMPDEST CALLVALUE DUP1 ISZERO PUSH2 0x294 JUMPI PUSH1 0x0 DUP1 REVERT JUMPDEST POP PUSH2 0x181 PUSH2 0x2A3 CALLDATASIZE PUSH1 0x4 PUSH2 0xFD2 JUMP JUMPDEST PUSH2 0x939 JUMP JUMPDEST CALLVALUE DUP1 ISZERO PUSH2 0x2B4 JUMPI PUSH1 0x0 DUP1 REVERT JUMPDEST POP PUSH2 0x181 PUSH2 0x2C3 CALLDATASIZE PUSH1 0x4 PUSH2 0xF7B JUMP JUMPDEST PUSH2 0x9BF JUMP JUMPDEST CALLVALUE DUP1 ISZERO PUSH2 0x2D4 JUMPI PUSH1 0x0 DUP1 REVERT JUMPDEST POP PUSH2 0x1AE PUSH1 0x6 SLOAD DUP2 JUMP JUMPDEST CALLVALUE DUP1 ISZERO PUSH2 0x2EA JUMPI PUSH1 0x0 DUP1 REVERT JUMPDEST POP PUSH2 0x1AE PUSH1 0x4 SLOAD DUP2 JUMP JUMPDEST CALLVALUE DUP1 ISZERO PUSH2 0x300 JUMPI PUSH1 0x0 DUP1 REVERT JUMPDEST POP PUSH2 0x181 PUSH2 0x30F CALLDATASIZE PUSH1 0x4 PUSH2 0xFF4 JUMP JUMPDEST PUSH2 0xA76 JUMP JUMPDEST CALLVALUE DUP1 ISZERO PUSH2 0x320 JUMPI PUSH1 0x0 DUP1 REVERT JUMPDEST POP PUSH1 0xB SLOAD PUSH2 0x14F SWAP1 PUSH1 0x1 PUSH1 0x1 PUSH1 0xA0 SHL SUB AND DUP2 JUMP JUMPDEST CALLVALUE DUP1 ISZERO PUSH2 0x340 JUMPI PUSH1 0x0 DUP1 REVERT JUMPDEST POP PUSH2 0x1AE PUSH2 0x34F CALLDATASIZE PUSH1 0x4 PUSH2 0xFF4 JUMP JUMPDEST PUSH1 0x9 PUSH1 0x20 MSTORE PUSH1 0x0 SWAP1 DUP2 MSTORE PUSH1 0x40 SWAP1 KECCAK256 SLOAD DUP2 JUMP JUMPDEST CALLVALUE DUP1 ISZERO PUSH2 0x36D JUMPI PUSH1 0x0 DUP1 REVERT JUMPDEST POP PUSH2 0x14F PUSH2 0x37C CALLDATASIZE PUSH1 0x4 PUSH2 0xF7B JUMP JUMPDEST PUSH1 0xA PUSH1 0x20 MSTORE PUSH1 0x0 SWAP1 DUP2 MSTORE PUSH1 0x40 SWAP1 KECCAK256 SLOAD PUSH1 0x1 PUSH1 0x1 PUSH1 0xA0 SHL SUB AND DUP2 JUMP JUMPDEST PUSH1 0x1 DUP1 SLOAD PUSH1 0x1 PUSH1 0xA0 SHL SWAP1 DIV PUSH1 0xFF AND PUSH1 0x2 DUP2 GT ISZERO PUSH2 0x3B6 JUMPI PUSH2 0x3B6 PUSH2 0xF94 JUMP JUMPDEST EQ PUSH2 0x401 JUMPI PUSH1 0x40 MLOAD PUSH3 0x461BCD PUSH1 0xE5 SHL DUP2 MSTORE PUSH1 0x20 PUSH1 0x4 DUP3 ADD MSTORE PUSH1 0x16 PUSH1 0x24 DUP3 ADD MSTORE PUSH22 0x131BDD1D195C9E481B5D5CDD081899481BDC195B9959 PUSH1 0x52 SHL PUSH1 0x44 DUP3 ADD MSTORE PUSH1 0x64 ADD JUMPDEST PUSH1 0x40 MLOAD DUP1 SWAP2 SUB SWAP1 REVERT JUMPDEST PUSH1 0x6 SLOAD TIMESTAMP LT ISZERO PUSH2 0x453 JUMPI PUSH1 0x40 MLOAD PUSH3 0x461BCD PUSH1 0xE5 SHL DUP2 MSTORE PUSH1 0x20 PUSH1 0x4 DUP3 ADD MSTORE PUSH1 0x1F PUSH1 0x24 DUP3 ADD MSTORE PUSH32 0x546865206C6F7474657279206973206E6F742066696E69736865642079657400 PUSH1 0x44 DUP3 ADD MSTORE PUSH1 0x64 ADD PUSH2 0x3F8 JUMP JUMPDEST PUSH1 0x1 DUP1 SLOAD PUSH1 0xFF PUSH1 0xA0 SHL NOT AND PUSH1 0x1 PUSH1 0xA1 SHL OR SWAP1 SSTORE PUSH1 0x7 SLOAD PUSH1 0x4 SLOAD PUSH1 0x0 SWAP2 PUSH2 0x478 SWAP2 PUSH2 0xB61 JUMP JUMPDEST SWAP1 POP PUSH32 0xE5F5B44D72D4143C278EB745C4ACC0695C4A5BC616BE5BEECF46ABE29661780E DUP2 PUSH1 0x40 MLOAD PUSH2 0x4AB SWAP2 DUP2 MSTORE PUSH1 0x20 ADD SWAP1 JUMP JUMPDEST PUSH1 0x40 MLOAD DUP1 SWAP2 SUB SWAP1 LOG1 POP JUMP JUMPDEST PUSH1 0x0 PUSH1 0x1 SLOAD PUSH1 0x1 PUSH1 0xA0 SHL SWAP1 DIV PUSH1 0xFF AND PUSH1 0x2 DUP2 GT ISZERO PUSH2 0x4D6 JUMPI PUSH2 0x4D6 PUSH2 0xF94 JUMP JUMPDEST EQ PUSH2 0x51C JUMPI PUSH1 0x40 MLOAD PUSH3 0x461BCD PUSH1 0xE5 SHL DUP2 MSTORE PUSH1 0x20 PUSH1 0x4 DUP3 ADD MSTORE PUSH1 0x16 PUSH1 0x24 DUP3 ADD MSTORE PUSH22 0x131BDD1D195C9E481B5D5CDD0818994818DB1BDCD959 PUSH1 0x52 SHL PUSH1 0x44 DUP3 ADD MSTORE PUSH1 0x64 ADD PUSH2 0x3F8 JUMP JUMPDEST PUSH1 0x1 DUP1 SLOAD PUSH1 0xFF PUSH1 0xA0 SHL NOT AND PUSH1 0x1 PUSH1 0xA0 SHL OR SWAP1 SSTORE PUSH1 0x5 SLOAD PUSH2 0x53C SWAP1 TIMESTAMP PUSH2 0x103A JUMP JUMPDEST PUSH1 0x6 SSTORE PUSH1 0x40 MLOAD TIMESTAMP DUP2 MSTORE PUSH32 0x3D01C4BA0165A3F9C01CA4916EFD5EFD92DD9AC07569FF74D7047C7CDE668349 SWAP1 PUSH1 0x20 ADD PUSH1 0x40 MLOAD DUP1 SWAP2 SUB SWAP1 LOG1 JUMP JUMPDEST PUSH1 0x1 DUP1 SLOAD PUSH1 0x1 PUSH1 0xA0 SHL SWAP1 DIV PUSH1 0xFF AND PUSH1 0x2 DUP2 GT ISZERO PUSH2 0x593 JUMPI PUSH2 0x593 PUSH2 0xF94 JUMP JUMPDEST EQ PUSH2 0x5D9 JUMPI PUSH1 0x40 MLOAD PUSH3 0x461BCD PUSH1 0xE5 SHL DUP2 MSTORE PUSH1 0x20 PUSH1 0x4 DUP3 ADD MSTORE PUSH1 0x16 PUSH1 0x24 DUP3 ADD MSTORE PUSH22 0x131BDD1D195C9E481B5D5CDD081899481BDC195B9959 PUSH1 0x52 SHL PUSH1 0x44 DUP3 ADD MSTORE PUSH1 0x64 ADD PUSH2 0x3F8 JUMP JUMPDEST DUP1 DUP1 PUSH1 0x0 SUB PUSH2 0x5FA JUMPI PUSH1 0x40 MLOAD PUSH3 0x461BCD PUSH1 0xE5 SHL DUP2 MSTORE PUSH1 0x4 ADD PUSH2 0x3F8 SWAP1 PUSH2 0x1052 JUMP JUMPDEST CALLER PUSH2 0x63E JUMPI PUSH1 0x40 MLOAD PUSH3 0x461BCD PUSH1 0xE5 SHL DUP2 MSTORE PUSH1 0x20 PUSH1 0x4 DUP3 ADD MSTORE PUSH1 0x14 PUSH1 0x24 DUP3 ADD MSTORE PUSH20 0x696E76616C696420757365722061646472657373 PUSH1 0x60 SHL PUSH1 0x44 DUP3 ADD MSTORE PUSH1 0x64 ADD PUSH2 0x3F8 JUMP JUMPDEST PUSH1 0xB SLOAD PUSH1 0x1 SLOAD PUSH1 0x1 PUSH1 0x1 PUSH1 0xA0 SHL SUB SWAP1 SWAP2 AND SWAP1 PUSH4 0xC9FCEC9 SWAP1 CALLER SWAP1 ADDRESS SWAP1 PUSH2 0x676 SWAP1 DUP8 SWAP1 PUSH1 0x1 PUSH1 0xA8 SHL SWAP1 DIV PUSH8 0xFFFFFFFFFFFFFFFF AND PUSH2 0x1089 JUMP JUMPDEST PUSH2 0x688 SWAP1 PUSH8 0xDE0B6B3A7640000 PUSH2 0x1089 JUMP JUMPDEST PUSH1 0x40 MLOAD PUSH1 0x1 PUSH1 0x1 PUSH1 0xE0 SHL SUB NOT PUSH1 0xE0 DUP7 SWAP1 SHL AND DUP2 MSTORE PUSH1 0x1 PUSH1 0x1 PUSH1 0xA0 SHL SUB SWAP4 DUP5 AND PUSH1 0x4 DUP3 ADD MSTORE SWAP3 SWAP1 SWAP2 AND PUSH1 0x24 DUP4 ADD MSTORE PUSH1 0x44 DUP3 ADD MSTORE PUSH1 0x64 ADD PUSH1 0x0 PUSH1 0x40 MLOAD DUP1 DUP4 SUB DUP2 PUSH1 0x0 DUP8 DUP1 EXTCODESIZE ISZERO DUP1 ISZERO PUSH2 0x6D7 JUMPI PUSH1 0x0 DUP1 REVERT JUMPDEST POP GAS CALL ISZERO DUP1 ISZERO PUSH2 0x6EB JUMPI RETURNDATASIZE PUSH1 0x0 DUP1 RETURNDATACOPY RETURNDATASIZE PUSH1 0x0 REVERT JUMPDEST POP POP PUSH1 0xB SLOAD PUSH1 0x1 SLOAD PUSH1 0x1 PUSH1 0x1 PUSH1 0xA0 SHL SUB SWAP1 SWAP2 AND SWAP3 POP PUSH4 0x23B872DD SWAP2 POP CALLER SWAP1 ADDRESS SWAP1 PUSH2 0x727 SWAP1 DUP8 SWAP1 PUSH1 0x1 PUSH1 0xA8 SHL SWAP1 DIV PUSH8 0xFFFFFFFFFFFFFFFF AND PUSH2 0x1089 JUMP JUMPDEST PUSH2 0x739 SWAP1 PUSH8 0xDE0B6B3A7640000 PUSH2 0x1089 JUMP JUMPDEST PUSH1 0x40 MLOAD PUSH1 0x1 PUSH1 0x1 PUSH1 0xE0 SHL SUB NOT PUSH1 0xE0 DUP7 SWAP1 SHL AND DUP2 MSTORE PUSH1 0x1 PUSH1 0x1 PUSH1 0xA0 SHL SUB SWAP4 DUP5 AND PUSH1 0x4 DUP3 ADD MSTORE SWAP3 SWAP1 SWAP2 AND PUSH1 0x24 DUP4 ADD MSTORE PUSH1 0x44 DUP3 ADD MSTORE PUSH1 0x64 ADD PUSH1 0x20 PUSH1 0x40 MLOAD DUP1 DUP4 SUB DUP2 PUSH1 0x0 DUP8 GAS CALL ISZERO DUP1 ISZERO PUSH2 0x78D JUMPI RETURNDATASIZE PUSH1 0x0 DUP1 RETURNDATACOPY RETURNDATASIZE PUSH1 0x0 REVERT JUMPDEST POP POP POP POP PUSH1 0x40 MLOAD RETURNDATASIZE PUSH1 0x1F NOT PUSH1 0x1F DUP3 ADD AND DUP3 ADD DUP1 PUSH1 0x40 MSTORE POP DUP2 ADD SWAP1 PUSH2 0x7B1 SWAP2 SWAP1 PUSH2 0x10A8 JUMP JUMPDEST POP PUSH1 0x1 SLOAD PUSH2 0x7D1 SWAP1 DUP4 SWAP1 PUSH1 0x1 PUSH1 0xA8 SHL SWAP1 DIV PUSH8 0xFFFFFFFFFFFFFFFF AND PUSH2 0x1089 JUMP JUMPDEST PUSH2 0x7E3 SWAP1 PUSH8 0xDE0B6B3A7640000 PUSH2 0x1089 JUMP JUMPDEST PUSH1 0xC PUSH1 0x0 DUP3 DUP3 SLOAD PUSH2 0x7F4 SWAP2 SWAP1 PUSH2 0x103A JUMP JUMPDEST SWAP1 SWAP2 SSTORE POP PUSH1 0x0 SWAP1 POP JUMPDEST DUP3 DUP2 LT ISZERO PUSH2 0x8C0 JUMPI PUSH1 0x3 SLOAD PUSH1 0x0 SWAP1 DUP2 MSTORE PUSH1 0xA PUSH1 0x20 SWAP1 DUP2 MSTORE PUSH1 0x40 DUP1 DUP4 KECCAK256 DUP1 SLOAD PUSH1 0x1 PUSH1 0x1 PUSH1 0xA0 SHL SUB NOT AND CALLER SWAP1 DUP2 OR SWAP1 SWAP2 SSTORE DUP4 MSTORE PUSH1 0x9 SWAP1 SWAP2 MSTORE DUP2 KECCAK256 DUP1 SLOAD SWAP2 PUSH2 0x841 DUP4 PUSH2 0x10CA JUMP JUMPDEST SWAP1 SWAP2 SSTORE POP POP PUSH1 0x3 DUP1 SLOAD SWAP1 PUSH1 0x0 PUSH2 0x856 DUP4 PUSH2 0x10CA JUMP JUMPDEST SWAP2 SWAP1 POP SSTORE POP PUSH32 0x9D5CF8D6FC62210BAB9630B8D613C1B63D9CFE0E0D2D70DDA538D69C7E4F37BA CALLER PUSH1 0x1 PUSH1 0x3 SLOAD PUSH2 0x88C SWAP2 SWAP1 PUSH2 0x10E3 JUMP JUMPDEST PUSH1 0x40 DUP1 MLOAD PUSH1 0x1 PUSH1 0x1 PUSH1 0xA0 SHL SUB SWAP1 SWAP4 AND DUP4 MSTORE PUSH1 0x20 DUP4 ADD SWAP2 SWAP1 SWAP2 MSTORE ADD PUSH1 0x40 MLOAD DUP1 SWAP2 SUB SWAP1 LOG1 DUP1 PUSH2 0x8B8 DUP2 PUSH2 0x10CA JUMP JUMPDEST SWAP2 POP POP PUSH2 0x7FD JUMP JUMPDEST POP POP POP JUMP JUMPDEST PUSH1 0x1 SLOAD PUSH1 0x1 PUSH1 0x1 PUSH1 0xA0 SHL SUB AND CALLER EQ PUSH2 0x8EF JUMPI PUSH1 0x40 MLOAD PUSH3 0x461BCD PUSH1 0xE5 SHL DUP2 MSTORE PUSH1 0x4 ADD PUSH2 0x3F8 SWAP1 PUSH2 0x10FA JUMP JUMPDEST PUSH1 0x1 SLOAD PUSH1 0x40 MLOAD PUSH1 0x0 SWAP2 PUSH1 0x1 PUSH1 0x1 PUSH1 0xA0 SHL SUB AND SWAP1 PUSH32 0x8BE0079C531659141344CD1FD0A4F28419497F9722A3DAAFE3B4186F6B6457E0 SWAP1 DUP4 SWAP1 LOG3 PUSH1 0x1 DUP1 SLOAD PUSH1 0x1 PUSH1 0x1 PUSH1 0xA0 SHL SUB NOT AND SWAP1 SSTORE JUMP JUMPDEST CALLER PUSH1 0x1 PUSH1 0x1 PUSH1 0xA0 SHL SUB PUSH32 0x0 AND EQ PUSH2 0x9B1 JUMPI PUSH1 0x40 MLOAD PUSH3 0x461BCD PUSH1 0xE5 SHL DUP2 MSTORE PUSH1 0x20 PUSH1 0x4 DUP3 ADD MSTORE PUSH1 0x1F PUSH1 0x24 DUP3 ADD MSTORE PUSH32 0x4F6E6C7920565246436F6F7264696E61746F722063616E2066756C66696C6C00 PUSH1 0x44 DUP3 ADD MSTORE PUSH1 0x64 ADD PUSH2 0x3F8 JUMP JUMPDEST PUSH2 0x9BB DUP3 DUP3 PUSH2 0xCDB JUMP JUMPDEST POP POP JUMP JUMPDEST PUSH1 0x1 SLOAD PUSH1 0x1 PUSH1 0x1 PUSH1 0xA0 SHL SUB AND CALLER EQ PUSH2 0x9E9 JUMPI PUSH1 0x40 MLOAD PUSH3 0x461BCD PUSH1 0xE5 SHL DUP2 MSTORE PUSH1 0x4 ADD PUSH2 0x3F8 SWAP1 PUSH2 0x10FA JUMP JUMPDEST PUSH1 0x0 PUSH1 0x1 SLOAD PUSH1 0x1 PUSH1 0xA0 SHL SWAP1 DIV PUSH1 0xFF AND PUSH1 0x2 DUP2 GT ISZERO PUSH2 0xA09 JUMPI PUSH2 0xA09 PUSH2 0xF94 JUMP JUMPDEST EQ PUSH2 0xA4F JUMPI PUSH1 0x40 MLOAD PUSH3 0x461BCD PUSH1 0xE5 SHL DUP2 MSTORE PUSH1 0x20 PUSH1 0x4 DUP3 ADD MSTORE PUSH1 0x16 PUSH1 0x24 DUP3 ADD MSTORE PUSH22 0x131BDD1D195C9E481B5D5CDD0818994818DB1BDCD959 PUSH1 0x52 SHL PUSH1 0x44 DUP3 ADD MSTORE PUSH1 0x64 ADD PUSH2 0x3F8 JUMP JUMPDEST DUP1 DUP1 PUSH1 0x0 SUB PUSH2 0xA70 JUMPI PUSH1 0x40 MLOAD PUSH3 0x461BCD PUSH1 0xE5 SHL DUP2 MSTORE PUSH1 0x4 ADD PUSH2 0x3F8 SWAP1 PUSH2 0x1052 JUMP JUMPDEST POP PUSH1 0x5 SSTORE JUMP JUMPDEST PUSH1 0x1 SLOAD PUSH1 0x1 PUSH1 0x1 PUSH1 0xA0 SHL SUB AND CALLER EQ PUSH2 0xAA0 JUMPI PUSH1 0x40 MLOAD PUSH3 0x461BCD PUSH1 0xE5 SHL DUP2 MSTORE PUSH1 0x4 ADD PUSH2 0x3F8 SWAP1 PUSH2 0x10FA JUMP JUMPDEST PUSH1 0x1 PUSH1 0x1 PUSH1 0xA0 SHL SUB DUP2 AND PUSH2 0xB05 JUMPI PUSH1 0x40 MLOAD PUSH3 0x461BCD PUSH1 0xE5 SHL DUP2 MSTORE PUSH1 0x20 PUSH1 0x4 DUP3 ADD MSTORE PUSH1 0x26 PUSH1 0x24 DUP3 ADD MSTORE PUSH32 0x4F776E61626C653A206E6577206F776E657220697320746865207A65726F2061 PUSH1 0x44 DUP3 ADD MSTORE PUSH6 0x646472657373 PUSH1 0xD0 SHL PUSH1 0x64 DUP3 ADD MSTORE PUSH1 0x84 ADD PUSH2 0x3F8 JUMP JUMPDEST PUSH1 0x1 SLOAD PUSH1 0x40 MLOAD PUSH1 0x1 PUSH1 0x1 PUSH1 0xA0 SHL SUB DUP1 DUP5 AND SWAP3 AND SWAP1 PUSH32 0x8BE0079C531659141344CD1FD0A4F28419497F9722A3DAAFE3B4186F6B6457E0 SWAP1 PUSH1 0x0 SWAP1 LOG3 PUSH1 0x1 DUP1 SLOAD PUSH1 0x1 PUSH1 0x1 PUSH1 0xA0 SHL SUB NOT AND PUSH1 0x1 PUSH1 0x1 PUSH1 0xA0 SHL SUB SWAP3 SWAP1 SWAP3 AND SWAP2 SWAP1 SWAP2 OR SWAP1 SSTORE JUMP JUMPDEST PUSH1 0x0 PUSH32 0x0 PUSH1 0x1 PUSH1 0x1 PUSH1 0xA0 SHL SUB AND PUSH4 0x4000AEA0 PUSH32 0x0 DUP5 DUP7 PUSH1 0x0 PUSH1 0x40 MLOAD PUSH1 0x20 ADD PUSH2 0xBD1 SWAP3 SWAP2 SWAP1 SWAP2 DUP3 MSTORE PUSH1 0x20 DUP3 ADD MSTORE PUSH1 0x40 ADD SWAP1 JUMP JUMPDEST PUSH1 0x40 MLOAD PUSH1 0x20 DUP2 DUP4 SUB SUB DUP2 MSTORE SWAP1 PUSH1 0x40 MSTORE PUSH1 0x40 MLOAD DUP5 PUSH4 0xFFFFFFFF AND PUSH1 0xE0 SHL DUP2 MSTORE PUSH1 0x4 ADD PUSH2 0xBFE SWAP4 SWAP3 SWAP2 SWAP1 PUSH2 0x112F JUMP JUMPDEST PUSH1 0x20 PUSH1 0x40 MLOAD DUP1 DUP4 SUB DUP2 PUSH1 0x0 DUP8 GAS CALL ISZERO DUP1 ISZERO PUSH2 0xC1D JUMPI RETURNDATASIZE PUSH1 0x0 DUP1 RETURNDATACOPY RETURNDATASIZE PUSH1 0x0 REVERT JUMPDEST POP POP POP POP PUSH1 0x40 MLOAD RETURNDATASIZE PUSH1 0x1F NOT PUSH1 0x1F DUP3 ADD AND DUP3 ADD DUP1 PUSH1 0x40 MSTORE POP DUP2 ADD SWAP1 PUSH2 0xC41 SWAP2 SWAP1 PUSH2 0x10A8 JUMP JUMPDEST POP PUSH1 0x0 DUP4 DUP2 MSTORE PUSH1 0x20 DUP2 DUP2 MSTORE PUSH1 0x40 DUP1 DUP4 KECCAK256 SLOAD DUP2 MLOAD DUP1 DUP5 ADD DUP9 SWAP1 MSTORE DUP1 DUP4 ADD DUP6 SWAP1 MSTORE ADDRESS PUSH1 0x60 DUP3 ADD MSTORE PUSH1 0x80 DUP1 DUP3 ADD DUP4 SWAP1 MSTORE DUP4 MLOAD DUP1 DUP4 SUB SWAP1 SWAP2 ADD DUP2 MSTORE PUSH1 0xA0 SWAP1 SWAP2 ADD SWAP1 SWAP3 MSTORE DUP2 MLOAD SWAP2 DUP4 ADD SWAP2 SWAP1 SWAP2 KECCAK256 DUP7 DUP5 MSTORE SWAP3 SWAP1 SWAP2 MSTORE PUSH2 0xC9B SWAP1 PUSH1 0x1 PUSH2 0x103A JUMP JUMPDEST PUSH1 0x0 DUP6 DUP2 MSTORE PUSH1 0x20 DUP2 DUP2 MSTORE PUSH1 0x40 SWAP2 DUP3 SWAP1 KECCAK256 SWAP3 SWAP1 SWAP3 SSTORE DUP1 MLOAD DUP1 DUP4 ADD DUP8 SWAP1 MSTORE DUP1 DUP3 ADD DUP5 SWAP1 MSTORE DUP2 MLOAD DUP1 DUP3 SUB DUP4 ADD DUP2 MSTORE PUSH1 0x60 SWAP1 SWAP2 ADD SWAP1 SWAP2 MSTORE DUP1 MLOAD SWAP2 ADD KECCAK256 SWAP5 SWAP4 POP POP POP POP JUMP JUMPDEST DUP1 DUP1 PUSH1 0x0 SUB PUSH2 0xCFC JUMPI PUSH1 0x40 MLOAD PUSH3 0x461BCD PUSH1 0xE5 SHL DUP2 MSTORE PUSH1 0x4 ADD PUSH2 0x3F8 SWAP1 PUSH2 0x1052 JUMP JUMPDEST PUSH1 0x2 PUSH1 0x1 SLOAD PUSH1 0x1 PUSH1 0xA0 SHL SWAP1 DIV PUSH1 0xFF AND PUSH1 0x2 DUP2 GT ISZERO PUSH2 0xD1C JUMPI PUSH2 0xD1C PUSH2 0xF94 JUMP JUMPDEST EQ PUSH2 0xD7F JUMPI PUSH1 0x40 MLOAD PUSH3 0x461BCD PUSH1 0xE5 SHL DUP2 MSTORE PUSH1 0x20 PUSH1 0x4 DUP3 ADD MSTORE PUSH1 0x2D PUSH1 0x24 DUP3 ADD MSTORE PUSH32 0x54686520636F6E7472616374206973206E6F742070726F63657373696E672074 PUSH1 0x44 DUP3 ADD MSTORE PUSH13 0x1A19481DDA5B9B995C881E595D PUSH1 0x9A SHL PUSH1 0x64 DUP3 ADD MSTORE PUSH1 0x84 ADD PUSH2 0x3F8 JUMP JUMPDEST PUSH1 0x0 PUSH1 0x3 SLOAD DUP4 PUSH2 0xD8F SWAP2 SWAP1 PUSH2 0x119B JUMP JUMPDEST PUSH1 0x0 DUP2 DUP2 MSTORE PUSH1 0xA PUSH1 0x20 MSTORE PUSH1 0x40 SWAP1 KECCAK256 SLOAD PUSH1 0x8 DUP1 SLOAD PUSH1 0x1 PUSH1 0x1 PUSH1 0xA0 SHL SUB NOT AND PUSH1 0x1 PUSH1 0x1 PUSH1 0xA0 SHL SUB SWAP1 SWAP3 AND SWAP2 DUP3 OR SWAP1 SSTORE PUSH1 0xC SLOAD SWAP2 SWAP3 POP PUSH2 0xDCC SWAP2 SWAP1 PUSH2 0xE78 JUMP JUMPDEST PUSH1 0x1 DUP1 SLOAD PUSH1 0xFF PUSH1 0xA0 SHL NOT AND SWAP1 SSTORE PUSH1 0x0 PUSH1 0xC DUP2 SWAP1 SSTORE JUMPDEST PUSH1 0x3 SLOAD DUP2 LT ISZERO PUSH2 0xE22 JUMPI PUSH1 0x0 DUP2 DUP2 MSTORE PUSH1 0xA PUSH1 0x20 SWAP1 DUP2 MSTORE PUSH1 0x40 DUP1 DUP4 KECCAK256 SLOAD PUSH1 0x1 PUSH1 0x1 PUSH1 0xA0 SHL SUB AND DUP4 MSTORE PUSH1 0x9 SWAP1 SWAP2 MSTORE DUP2 KECCAK256 SSTORE DUP1 PUSH2 0xE1A DUP2 PUSH2 0x10CA JUMP JUMPDEST SWAP2 POP POP PUSH2 0xDE1 JUMP JUMPDEST POP PUSH1 0x0 PUSH1 0x3 SSTORE PUSH1 0x2 DUP4 SWAP1 SSTORE PUSH1 0x8 SLOAD PUSH1 0x40 DUP1 MLOAD PUSH1 0x1 PUSH1 0x1 PUSH1 0xA0 SHL SUB SWAP1 SWAP3 AND DUP3 MSTORE TIMESTAMP PUSH1 0x20 DUP4 ADD MSTORE PUSH32 0x64FFCA72C341AAB4874123AFB736AFBD6FAD01E6EAF584CFE0F320A144D3A576 SWAP2 ADD PUSH1 0x40 MLOAD DUP1 SWAP2 SUB SWAP1 LOG1 POP POP POP POP JUMP JUMPDEST PUSH1 0xB SLOAD PUSH1 0x1 PUSH1 0x1 PUSH1 0xA0 SHL SUB AND PUSH4 0xC9FCEC9 ADDRESS DUP4 PUSH2 0xE9D DUP7 PUSH8 0xDE0B6B3A7640000 PUSH2 0x1089 JUMP JUMPDEST PUSH1 0x40 MLOAD PUSH1 0x1 PUSH1 0x1 PUSH1 0xE0 SHL SUB NOT PUSH1 0xE0 DUP7 SWAP1 SHL AND DUP2 MSTORE PUSH1 0x1 PUSH1 0x1 PUSH1 0xA0 SHL SUB SWAP4 DUP5 AND PUSH1 0x4 DUP3 ADD MSTORE SWAP3 SWAP1 SWAP2 AND PUSH1 0x24 DUP4 ADD MSTORE PUSH1 0x44 DUP3 ADD MSTORE PUSH1 0x64 ADD PUSH1 0x0 PUSH1 0x40 MLOAD DUP1 DUP4 SUB DUP2 PUSH1 0x0 DUP8 DUP1 EXTCODESIZE ISZERO DUP1 ISZERO PUSH2 0xEEC JUMPI PUSH1 0x0 DUP1 REVERT JUMPDEST POP GAS CALL ISZERO DUP1 ISZERO PUSH2 0xF00 JUMPI RETURNDATASIZE PUSH1 0x0 DUP1 RETURNDATACOPY RETURNDATASIZE PUSH1 0x0 REVERT JUMPDEST POP POP PUSH1 0xB SLOAD PUSH1 0x40 MLOAD PUSH4 0xA9059CBB PUSH1 0xE0 SHL DUP2 MSTORE PUSH1 0x1 PUSH1 0x1 PUSH1 0xA0 SHL SUB DUP6 DUP2 AND PUSH1 0x4 DUP4 ADD MSTORE PUSH1 0x24 DUP3 ADD DUP8 SWAP1 MSTORE SWAP1 SWAP2 AND SWAP3 POP PUSH4 0xA9059CBB SWAP2 POP PUSH1 0x44 ADD PUSH1 0x20 PUSH1 0x40 MLOAD DUP1 DUP4 SUB DUP2 PUSH1 0x0 DUP8 GAS CALL ISZERO DUP1 ISZERO PUSH2 0xF57 JUMPI RETURNDATASIZE PUSH1 0x0 DUP1 RETURNDATACOPY RETURNDATASIZE PUSH1 0x0 REVERT JUMPDEST POP POP POP POP PUSH1 0x40 MLOAD RETURNDATASIZE PUSH1 0x1F NOT PUSH1 0x1F DUP3 ADD AND DUP3 ADD DUP1 PUSH1 0x40 MSTORE POP DUP2 ADD SWAP1 PUSH2 0x8C0 SWAP2 SWAP1 PUSH2 0x10A8 JUMP JUMPDEST PUSH1 0x0 PUSH1 0x20 DUP3 DUP5 SUB SLT ISZERO PUSH2 0xF8D JUMPI PUSH1 0x0 DUP1 REVERT JUMPDEST POP CALLDATALOAD SWAP2 SWAP1 POP JUMP JUMPDEST PUSH4 0x4E487B71 PUSH1 0xE0 SHL PUSH1 0x0 MSTORE PUSH1 0x21 PUSH1 0x4 MSTORE PUSH1 0x24 PUSH1 0x0 REVERT JUMPDEST PUSH1 0x20 DUP2 ADD PUSH1 0x3 DUP4 LT PUSH2 0xFCC JUMPI PUSH4 0x4E487B71 PUSH1 0xE0 SHL PUSH1 0x0 MSTORE PUSH1 0x21 PUSH1 0x4 MSTORE PUSH1 0x24 PUSH1 0x0 REVERT JUMPDEST SWAP2 SWAP1 MSTORE SWAP1 JUMP JUMPDEST PUSH1 0x0 DUP1 PUSH1 0x40 DUP4 DUP6 SUB SLT ISZERO PUSH2 0xFE5 JUMPI PUSH1 0x0 DUP1 REVERT JUMPDEST POP POP DUP1 CALLDATALOAD SWAP3 PUSH1 0x20 SWAP1 SWAP2 ADD CALLDATALOAD SWAP2 POP JUMP JUMPDEST PUSH1 0x0 PUSH1 0x20 DUP3 DUP5 SUB SLT ISZERO PUSH2 0x1006 JUMPI PUSH1 0x0 DUP1 REVERT JUMPDEST DUP2 CALLDATALOAD PUSH1 0x1 PUSH1 0x1 PUSH1 0xA0 SHL SUB DUP2 AND DUP2 EQ PUSH2 0x101D JUMPI PUSH1 0x0 DUP1 REVERT JUMPDEST SWAP4 SWAP3 POP POP POP JUMP JUMPDEST PUSH4 0x4E487B71 PUSH1 0xE0 SHL PUSH1 0x0 MSTORE PUSH1 0x11 PUSH1 0x4 MSTORE PUSH1 0x24 PUSH1 0x0 REVERT JUMPDEST PUSH1 0x0 DUP3 NOT DUP3 GT ISZERO PUSH2 0x104D JUMPI PUSH2 0x104D PUSH2 0x1024 JUMP JUMPDEST POP ADD SWAP1 JUMP JUMPDEST PUSH1 0x20 DUP1 DUP3 MSTORE PUSH1 0x1D SWAP1 DUP3 ADD MSTORE PUSH32 0x5468697320706172616D657465722063616E6E6F74206265207A65726F000000 PUSH1 0x40 DUP3 ADD MSTORE PUSH1 0x60 ADD SWAP1 JUMP JUMPDEST PUSH1 0x0 DUP2 PUSH1 0x0 NOT DIV DUP4 GT DUP3 ISZERO ISZERO AND ISZERO PUSH2 0x10A3 JUMPI PUSH2 0x10A3 PUSH2 0x1024 JUMP JUMPDEST POP MUL SWAP1 JUMP JUMPDEST PUSH1 0x0 PUSH1 0x20 DUP3 DUP5 SUB SLT ISZERO PUSH2 0x10BA JUMPI PUSH1 0x0 DUP1 REVERT JUMPDEST DUP2 MLOAD DUP1 ISZERO ISZERO DUP2 EQ PUSH2 0x101D JUMPI PUSH1 0x0 DUP1 REVERT JUMPDEST PUSH1 0x0 PUSH1 0x1 DUP3 ADD PUSH2 0x10DC JUMPI PUSH2 0x10DC PUSH2 0x1024 JUMP JUMPDEST POP PUSH1 0x1 ADD SWAP1 JUMP JUMPDEST PUSH1 0x0 DUP3 DUP3 LT ISZERO PUSH2 0x10F5 JUMPI PUSH2 0x10F5 PUSH2 0x1024 JUMP JUMPDEST POP SUB SWAP1 JUMP JUMPDEST PUSH1 0x20 DUP1 DUP3 MSTORE DUP2 DUP2 ADD MSTORE PUSH32 0x4F776E61626C653A2063616C6C6572206973206E6F7420746865206F776E6572 PUSH1 0x40 DUP3 ADD MSTORE PUSH1 0x60 ADD SWAP1 JUMP JUMPDEST PUSH1 0x1 DUP1 PUSH1 0xA0 SHL SUB DUP5 AND DUP2 MSTORE PUSH1 0x0 PUSH1 0x20 DUP5 DUP2 DUP5 ADD MSTORE PUSH1 0x60 PUSH1 0x40 DUP5 ADD MSTORE DUP4 MLOAD DUP1 PUSH1 0x60 DUP6 ADD MSTORE PUSH1 0x0 JUMPDEST DUP2 DUP2 LT ISZERO PUSH2 0x1171 JUMPI DUP6 DUP2 ADD DUP4 ADD MLOAD DUP6 DUP3 ADD PUSH1 0x80 ADD MSTORE DUP3 ADD PUSH2 0x1155 JUMP JUMPDEST DUP2 DUP2 GT ISZERO PUSH2 0x1183 JUMPI PUSH1 0x0 PUSH1 0x80 DUP4 DUP8 ADD ADD MSTORE JUMPDEST POP PUSH1 0x1F ADD PUSH1 0x1F NOT AND SWAP3 SWAP1 SWAP3 ADD PUSH1 0x80 ADD SWAP6 SWAP5 POP POP POP POP POP JUMP JUMPDEST PUSH1 0x0 DUP3 PUSH2 0x11B8 JUMPI PUSH4 0x4E487B71 PUSH1 0xE0 SHL PUSH1 0x0 MSTORE PUSH1 0x12 PUSH1 0x4 MSTORE PUSH1 0x24 PUSH1 0x0 REVERT JUMPDEST POP MOD SWAP1 JUMP INVALID LOG2 PUSH5 0x6970667358 0x22 SLT KECCAK256 BYTE 0xAB CREATE2 0x2C LOG3 PUSH14 0x1D547BFC0B317DB172CA98A1604E CALLDATASIZE OR EQ KECCAK256 STOP RETURNDATASIZE 0xB1 PUSH4 0x14456530 PUSH5 0x736F6C6343 STOP ADDMOD 0xF STOP CALLER ","sha1":"f6c698cdbea44aaff5eca1ca1187c404b9b539e8","source":"// SPDX-License-Identifier: MIT\npragma solidity ^0.8.0;\n\nimport \"@chainlink/contracts/src/v0.8/interfaces/AggregatorV3Interface.sol\";\nimport \"@chainlink/contracts/src/v0.8/VRFConsumerBase.sol\";\nimport \"@openzeppelin/contracts/access/Ownable.sol\";\n\nimport './BAPToken.sol';\n\n\ncontract Lottery is VRFConsumerBase, Ownable\n  \n    {\n    // Lottery states\n    enum LOTTERY_STATE {\n        CLOSED,\n        OPENED,\n        PROCESSING\n    }\n    LOTTERY_STATE public lotteryState;\n    uint64 ticketPrice = 50;\n    uint256 public randomness;\n    uint256 public entryCounter;\n    // uint256 public entryFee;\n    uint256 public fee; \n    uint256 public lotteryDuration;\n    uint256 public lotteryDeadlineTimestamp;    \n    bytes32 public keyhash;\n    address public latestWinner;\n    mapping(address => uint256) public participantEntries;\n    mapping(uint256=>address) public entryIdToParticipant;\n    // AggregatorV3Interface public priceFeed;\n    BAPToken public token;\n    uint256 public poolPrize;\n\n    // events\n    event LotteryStarted(uint256 timeStamp);\n    event LotteryFinished(address winner, uint256 timeStamp);\n    event NewEntry(address participant, uint256 entryId);\n    event UserPaid(address user, uint256 amount);\n    event RequestedRandomness(bytes32 requestId);\n\n    constructor(\n        // address _priceFeedAddress,\n        address _vrfCoordinator,\n        address _linkTokenAddress,\n        // uint256 _entryFee,\n \n        uint256 _fee,\n        bytes32 _keyhash,\n        BAPToken _token\n    ) VRFConsumerBase(_vrfCoordinator, _linkTokenAddress) {\n        // priceFeed = AggregatorV3Interface(_priceFeedAddress);\n        // amount players must pay in order to enter the lottery\n        // entryFee = _entryFee;\n        fee = _fee;\n        keyhash = _keyhash;\n        lotteryState = LOTTERY_STATE.CLOSED;\n        // 1 hours\n        lotteryDuration = 300;\n        token = _token;\n        token.setApproval(msg.sender, address(this), 1000000);\n        token.transferFrom(msg.sender, address(this), 1000000);\n\n        // owner = msg.sender;\n    }\n    // modifiers\n    modifier onlyOpened {\n        require(lotteryState == LOTTERY_STATE.OPENED, \"Lottery must be opened\");\n        _;\n    }\n\n    modifier onlyClosed {\n        require(lotteryState == LOTTERY_STATE.CLOSED, \"Lottery must be closed\");\n        _;\n    }\n\n    modifier notZero(uint256 _number) {\n        require(_number != 0, \"This parameter cannot be zero\");\n        _;\n    }\n\n    fallback() payable external{\n        revert();\n    }\n\n    receive() external payable{\n\n    }\n\n    // function getEntryFee() public view returns (uint256) {\n    //     (, int256 price, , , ) = priceFeed.latestRoundData();\n    //     uint256 ethPrice = uint256(price) * 10**10;\n    //     uint256 precision = 10**18;\n    //     return (entryFee * precision) / ethPrice;\n    // }\n\n    function enterLottery(uint256 _numberOfEntries) \n        public \n        payable \n        onlyOpened \n        notZero(_numberOfEntries)\n    {\n        require(msg.sender != address(0), \"invalid user address\");\n        \n        token.setApproval(msg.sender, address(this), (ticketPrice*_numberOfEntries*10**18));\n        token.transferFrom(msg.sender, address(this), (ticketPrice*_numberOfEntries*10**18));\n        poolPrize += ticketPrice*_numberOfEntries*(10**18);\n        for (uint256 counter = 0; counter < _numberOfEntries; counter++) {\n            entryIdToParticipant[entryCounter] = msg.sender;\n            participantEntries[msg.sender]++;\n            entryCounter++;\n            emit NewEntry(msg.sender, entryCounter - 1);    \n        }\n    }\n\n    function payUser(address _user, uint256 _amount) internal notZero(_amount) {\n        require(_user != address(0), \"invalid user address\");\n        // payable(_user).transfer(_amount);\n        token.setApproval(address(this), _user, _amount);\n        token.transfer(_user, _amount);\n        emit UserPaid(_user, _amount);\n    }\n\n    function startLottery() public onlyClosed {\n        lotteryState = LOTTERY_STATE.OPENED;\n        lotteryDeadlineTimestamp = block.timestamp + lotteryDuration;\n        emit LotteryStarted(block.timestamp);\n    }\n\n    function endLottery() public onlyOpened {\n        require(\n            block.timestamp >= lotteryDeadlineTimestamp,\n            \"The lottery is not finished yet\"\n        );\n        lotteryState = LOTTERY_STATE.PROCESSING;\n        bytes32 requestId = requestRandomness(keyhash, fee);\n        emit RequestedRandomness(requestId);\n    }\n\n    function fulfillRandomness(bytes32 _requestId, uint256 _randomness)\n        internal\n        override\n        notZero(_randomness)\n    {\n        require(\n            lotteryState == LOTTERY_STATE.PROCESSING,\n            \"The contract is not processing the winner yet\"\n        );\n        uint256 entryIdOfWinner = _randomness % entryCounter;\n        latestWinner = entryIdToParticipant[entryIdOfWinner];\n\n        transferPrize(poolPrize, latestWinner);\n        \n        // The winner recieves 90% of the contract balance\n        // The other 10% goes to the owner\n        // uint256 contractBalance = address(this).balance;\n        // uint256 amountToPayWinner = (contractBalance * 90) / 100;\n        // uint256 amountToPayOwner = (contractBalance * 10) / 100;\n        // payUser(latestWinner, contractBalance);\n        // payUser(owner(), amountToPayOwner);\n        // Reset \n        lotteryState = LOTTERY_STATE.CLOSED;\n        poolPrize = 0;\n        for (uint index = 0; index < entryCounter; index++) {\n            participantEntries[entryIdToParticipant[index]] = 0;\n        }\n        entryCounter = 0;\n        randomness = _randomness;\n        emit LotteryFinished(latestWinner, block.timestamp);\n    }\n\n    function transferPrize(uint256 _winnerPrize, address winner) private{\n        token.setApproval(address(this), winner, _winnerPrize*(10**18));\n        token.transfer(winner, _winnerPrize);\n    }\n\n    // function changeEntryFee(uint256 _newEntryFee)\n    //     public\n    //     onlyOwner\n    //     onlyClosed\n    //     notZero(_newEntryFee)\n    // {\n    //     entryFee = _newEntryFee;\n    // }\n\n    function changeDuration(uint256 _newDuration) \n        public\n        onlyOwner \n        onlyClosed\n        notZero(_newDuration)\n    {\n        lotteryDuration = _newDuration;\n    }\n}\n","sourcePath":"contracts/Lottery.sol","type":"contract","deployment":{"address":"0x230413fcEdd829223D406B6F3B1775a0486b484a","chainid":"4","blockHeight":11035567}}